:020000040000fa
:020000040040ba
:10000000f0ff4520091440004b3940003b3a4000c6
:10001000e33f400043404000d34240000000000066
:10002000000000000000000000000000313f400020
:100030006f3e400000000000e1314000413c4000c4
:10004000c3364000c3364000c3364000c3364000cc
:10005000c3364000c3364000c3364000c3364000bc
:10006000c336400000000000c3364000c3364000e5
:10007000c336400049184000c3364000c336400034
:10008000c3364000c3364000c3364000c33640008c
:10009000c3364000c3364000c3364000dd3e40005a
:1000a000c3364000c3364000c3364000c33640006c
:1000b000c3364000c3364000c3364000c33640005c
:1000c000c3364000c3364000c3364000c33640004c
:1000d000c3364000c3364000c3364000c33640003c
:1000e000c3364000c3364000c3364000c33640002c
:1000f000c3364000c3364000c3364000c33640001c
:10010000c3364000c3364000c3364000c33640000b
:10011000c3364000000000000000000000000000a6
:10012000c3364000c3364000c3364000c3364000eb
:10013000c3364000c3364000c3364000c3364000db
:10014000c3364000c3364000c3364000c3364000cb
:10015000c3364000c3364000c3364000c3364000bb
:08016000c3364000c336400025
:020000040000fa
:020000040040ba
:10016800f8b500bff8bc08bc9e4670477137400020
:10017800f8b500bff8bc08bc9e4670474d37400034
:020000040000fa
:020000040040ba
:08018800cc0d00000100000095
:020000040000fa
:020000040040ba
:100190002de9f04f2ded0c8b1d4692ed008bd1e932
:1001a0000083b5eec08b8db0f1ee10fa03930b69ae
:1001b0000790d1f808900493cc6807d418f0040f86
:1001c00035d118f0080734d0202302e02d23b1eefa
:1001d000488b237009f1ff36012718ee901adff8db
:1001e00078b321f0004318ee102a4ff0000a5b4567
:1001f00008bf524504eb0700a5f141011bd11929a5
:1002000004eb070094bfd049d04904f0fff8cf4871
:1002100004f080f8cdf8008002464b46214607984e
:1002200002f0e3fb0db0bdec0c8bbde8f08f2b238f
:10023000cfe74e46d1e79b4508bf924507d2192923
:1002400094bfc349c34904f0e1f8c248e0e7302253
:100250001a2907f101030270b5ee408b34bf582212
:100260007822f1ee10fae254b7ee009b07f1020794
:10027000a6f102064ff0000a40f0e880b0ee49bb5c
:10028000b0ee48cb039b9fedaadb002bacbf9b4697
:100290004ff0180b0025b0ee4dab8cee0b0b06911a
:1002a00001f0d6fe6b1c0593039b00ee4bcb002b9d
:1002b0002bee0dbb069904dab5ee40cbf1ee10fa49
:1002c00005d0ab4500f3e5800bf101030593b2eed9
:1002d000007b2bee077bb4eec7cbf1ee10fa00f1fa
:1002e000da80b4ee47cbf1ee10fa09d1bdeec00bc7
:1002f0009fed916b10ee103a13f0010f06fe077b95
:1003000038ee078b18ee900adff84cc218ee102a70
:1003100020f000434ff0000b634508bf5a453ff4ff
:100320006eaf049a4ff0000b053a3d46cdf818b079
:100330005b460992099aaa421ddd88ee090b0a93d1
:10034000089101f085fefdeec07bb0ee40bb17eedc
:10035000900a08990a9b002840f0a080002b00f02a
:100360009d800bf1010b059a0bee498b01339a42ec
:1003700029ee0a9bded1069bdbb96319bbf1000fa6
:1003800000f0ec80039a002a40f3e88018f0010f97
:1003900040f0e4802e221a700beb0502224430203c
:1003a00003f8010f9342fbd15d446fea0b0b01355b
:1003b0005e4463190393049b04980022013b924519
:1003c0006255b8bfcaf1000ae254c0f1020bb8bfcf
:1003d00001224ff00a0cbaf1000f40f096800bebaf
:1003e000030ebef1010f00f09080002a03f1ff3ce4
:1003f00014bf2d222b22023b1a2904f80c2034bff3
:10040000502270229d4204eb0301e25402da039869
:1004100003f0fcff08f00303022b11d1b51e002de1
:100420000edd204603f076ff013e2044031b9f4271
:1004300077dd2a463021e01903f064ff4ff0000910
:100440002046e5e60af1010ab0ee479b39ee097b4a
:10045000b4eec78bf1ee10faf4d5b6ee007bb0ee39
:10046000475b9fed376bb4eec98bf1ee10fa7ff569
:1004700005af29ee074bb5ee404bf1ee10fa04bf85
:1004800029ee069b28ee068b29ee059b0af1ff3a22
:10049000e9e7059d01e79fed287b31e7069a32b930
:1004a0002bb12e2262550122013e0135069208959c
:1004b00004eb050c5a4604e04ff0300e0cf801eb4b
:1004c000013a002af8d10928089a05f1010506f138
:1004d000ff36d4bf3030573019295d445a44a6eb5b
:1004e0000b060ed840f0200cacf1610cbcf1190fda
:1004f00007d8cde90a32089103f033ffdde90a326b
:100500000899a0544ff0000b2de7bafbfcfe013b0d
:100510000cfb1eaa0af1300a04f803a0013ef246c1
:1005200059e710f80139835580e700bfaff3008029
:10053000000000000000b03f0000000000000000cc
:1005400000000000000050432443400028434000c6
:100550002c434000304340000000f07f18f0100fa3
:0c0560003ff427af2e2201351a7022e76d
:020000040000fa
:020000040040ba
:04056c00704700bf15
:020000040000fa
:020000040040ba
:100570002de9f04f2ded0a8b92ed00bb8fb0b5ee5b
:10058000c0bb05938b680293f1ee10fa0b690790dc
:100590008946d1e900870893cd6808d418f0040f84
:1005a00035d118f00803039333d0202302e02d2324
:1005b000b1ee4bbb2b70029b5e1e012303931bee1f
:1005c000901a21f00043039969180491c2491bee67
:1005d000102a00208b4208bf82421cd1059b049840
:1005e000413b192b94bfbd49bd4903f00fffbc48e7
:1005f00003f090fecdf800800246029b0798294642
:1006000002f0f3f90fb0bdec0a8bbde8f08f2b239d
:10061000d0e7029ed3e7994208bf90420ad2059bd9
:100620000498413b192b94bfae49af4903f0eefe4d
:10063000ad48dde7b5ee40bbf1ee10fab2ee049b3b
:10064000b7ee00ab4ff0000416d1059803f082fe20
:10065000002fc0b2c0f2328167282ad1002f08bf14
:100660000127231d02dbbc42c0f220814ff0650a46
:100670002fe00134b0ee47ab2aee097bb4eecb7b22
:10068000f1ee10faf5dd0023984a9fed8f7b0ae02a
:10069000944205da23b92bee07bb2aee07ab012300
:1006a000013c8aee09abb4eecabbf1ee10faefd40e
:1006b000cbe78246baf1660f07f1010709d1002c9a
:1006c00002dab7ee00ab0024672818bf3f194ff0dd
:1006d000660a4ff0000bb0ee4a8bb0ee4bcb8ceebf
:1006e000080b069001f0b4fc0bf1010bfdeec07b92
:1006f0005f4590ee08cb17ee903ab1ee4ccb88ee0a
:10070000098b0698ebd1b1ee047b28ee077bb4eea3
:10071000c7cbf1ee10fa74d4b4ee47cbf1ee10fa79
:1007200005d19fed6b6b13f0010f06fe077bbaf14d
:10073000650f14bf21460021cb1b0a934ff0000b1d
:1007400008f01003039fcdf818b00b933bee07bbe6
:100750000a9b09978b4204d0d9f81030053bbb4265
:1007600052d8069b33b918f0100f1fbf099a2e23d9
:10077000ab5401370022baf1650f05eb0700ea55cb
:1007800029d1089b0899013b9442ea54c1f1030e18
:10079000bcbf644201220a21002c79d10eeb030c6c
:1007a000bcf1000f74dc002a03f1ff3114bf2d22cd
:1007b0002b226a54059a413a023b192a98bf4ff0fe
:1007c000450a9f4205eb030105f803a0a6f10206c6
:1007d00001da03f01bfe08f00303022b0fd1002ef9
:1007e0000ddd284603f096fdab19039a824259ddd0
:1007f00032463021049803f085fd002302932846f9
:10080000f6e69fed337b92e78bee0a0bcde90c10f9
:1008100001f01efcfdeec07b0b9b17ee902a1343ec
:10082000dde90c100ed167280cd1002917da0bf185
:1008300001039aee00bb0139b1ee4bbb8aee09ab66
:100840009b4685e7069b53b9002908da099b4ff0c0
:100850002e0c05f803c001230137013e06933a46ea
:1008600005eb070e5b4604e04ff0300c0ef801cbb1
:10087000013b002bf8d12a44944617ee902a013709
:10088000013e30325f44a6eb0b060cf80b20d0e79c
:10089000b4fbf1fc013b01fb1c443034ec54013e41
:1008a000644679e72a5c1a5401389ee7002cbff6ab
:1008b0000eaf4ff0660afde60627d2e66728fbd0aa
:1008c00082460627f6e600bf000000000000504305
:1008d00000000000000000000000f07f34434000f2
:1008e000384340003c43400040434000d4fefffffb
:020000040000fa
:020000040040ba
:1008f000d8a440201c0000000000000090a540206b
:1009000004000000000000002ca14020c8000000ee
:100910000000000094a5402004000000000000003a
:1009200098a5402004000000000000009ca5402085
:10093000040000000000000006a6402002000000a5
:10094000000000006ca540200c000000000000002a
:1009500078a540200800000000000000f4a440201a
:100960001400000000000000a0a5402004000000ca
:1009700001000000fffffffff4a14020c8000000bd
:100980000000000008a64020020000000000000057
:1009900005a64020010000000000000010a6402035
:1009a000010000000000000011a64020010000002e
:1009b0000000000012a6402001000000000000001e
:1009c00013a64020010000000000000014a64020f3
:1009d000010000000000000015a6402001000000fa
:1009e0000000000016a640200100000000000000ea
:1009f00000a040202c010000000000000aa64020ba
:100a0000020000000000000017a6402001000000c6
:100a1000000000000ca640200200000000000000c2
:100a200018a64020010000000000000019a6402088
:100a3000010000000000000010a440204000000061
:100a40000000000080a54020080000000000000019
:100a500088a44020300000000000000050a4402086
:100a60003800000000000000bca24020a0000000f0
:100a7000000000000ea6402002000000010000005f
:100a800001000000a4a540200400000000000000b8
:100a9000a8a540200400000000000000aca54020f4
:100aa0000400000000000000b0a540200400000089
:100ab00001000000aaaaaaaab4a5402004000000d0
:100ac000000000000000402000a000000000000026
:100ad000b8a540200400000000000000bca5402094
:100ae0000400000000000000c0a540200400000039
:100af00000000000c4a54020040000000000000029
:100b00005ca340206400000000000000c8a5402055
:100b10000400000000000000cca5402004000000fc
:100b200000000000d0a540200400000000000000ec
:100b3000d4a540200400000000000000d8a54020fb
:100b4000040000000000000008a540201400000080
:100b5000000000001ca54020140000000000000060
:100b6000dca540200400000000000000e0a54020bb
:100b70000400000000000000e4a540200400000084
:100b800000000000e8a54020040000000000000074
:100b900030a540201400000000000000eca540201b
:100ba000040000000000000044a5402014000000e4
:100bb0000000000058a540201400000000000000c4
:100bc000f0a540200400000000000000f4a5402033
:100bd000040000000000000004a640200100000006
:100be00000000000f8a54020040000000000000004
:100bf000c0a340205000000000000000fca54020e1
:100c00000400000000000000b8a440202000000004
:100c100001000000010000000300000000000000cf
:100c200000000000000000000000000000000000c4
:100c300088a5402088a54020080000000000000092
:100c400000a640200400000000000000000000009a
:100c500000000000222222222222222222222222fc
:020000040000fa
:020000040040ba
:100c60002de9f04fadb00027dff8e4a2039106466e
:100c70001546b8464ff0ff3903990b78002b00f06a
:100c8000f9800cabcde907890a938023cdf8248045
:100c90000b9300240b5d0bb1252b26d134b12246da
:100ca000304602f0adfe039b23440393039b1a7866
:100cb000252a40f0d78003f1010bcdf80cb0039842
:100cc00003782b2b1ad025d8202b1bd0232b1dd0fb
:100cd0002a2b27d002f0d2fc0990039b1a78303ad5
:100ce000092a2ed801330393f7e70134d2e7079b93
:100cf00043f00103013007930390e0e7079b43f0c3
:100d00000403f7e7079b43f00803f3e7079b43f06f
:100d10001003efe72d2bead0302bd9d1079b43f0fe
:100d20000203e7e72b681a1d1b682a600130002bbd
:100d30000390099305da079a5b4282f00102079259
:100d40000993079bda0744bf23f002030793039b31
:100d50001a782e2a0dd1581ccdf8208003905a788d
:100d60002a2a25d1023303932b681a1d1b682a6097
:100d7000089303a802f09afe039b0190187803f0f1
:100d8000e9fa6928019979d032dc632800f0c6803d
:100d900019dc252800f0d080612853d025238df858
:100da0001030cdf80cb0cdf81c80cde90898c0e02b
:100db00002f064fc0890039b1a78303a092ad8d8cc
:100dc00001330393f7e7642858d06728e6dc2a4606
:100dd00004a802f0d4ff002800f09c80039b5a1c5a
:100de00003921b7804aa07a93046fff7c1fb38e03d
:100df000702873d015dc6e2800f087806f28cdd165
:100e00002b46002204a801f04bfc002800f0828051
:100e1000039b04aa013307a93046039301f051ff55
:100e20001fe075283ad0782848d07328b6d1802999
:100e300070d1039b2a6801330393131d2b60126842
:100e400000235be02a4604a802f099ff002861d045
:100e5000039b5a1c03921b7804aa07a93046fff78c
:100e600097f904443c44a7426edd384b4f221a6088
:100e70004ff0ff3738462db0bde8f08f2b460122ea
:100e800004a801f00dfc002844d0039b04aa013300
:100e900007a93046039301f0affbe2e72b4600229f
:100ea00004a801f0fdfb002834d0039b04aa013301
:100eb00007a93046039302f0a7fad2e72b46002297
:100ec00004a801f0edfb28b3039b5a1c03921b7886
:100ed00004aa07a9304600f0e1fdc2e72b46002234
:100ee000f02104a801f0dcfba0b1039b01330393c4
:100ef000dde90423134306d10023524607a93046f7
:100f000002f056faade77823e2e72b463a1904a837
:100f100001f0e8fd039b01330393a3e78029f9d196
:100f2000039b013303932b681a1d1b682a608df8fd
:100f30001030012304aae1e78029ebd1039b8df84f
:100f4000100001330393f4e7274695e600a64020fe
:040f50001e414000fe
:020000040000fa
:020000040040ba
:100f54002de9f047089e04468846002b40f0858022
:100f64008a42154648d9b2fa82f24ab1c2f1200740
:100f740001fa02f320fa07f7954047ea0308944080
:100f84004fea154e230cb8fbfef71ffa85fc0efb47
:100f9400178843ea084307fb0cf1994209d9eb1877
:100fa40007f1ff3080f0e380994240f2e080023f95
:100fb4002b445b1aa4b2b3fbfef00efb103344eadd
:100fc400034400fb0cfca44509d92c1900f1ff33a0
:100fd40080f0cb80a44540f2c88002382c4440ea1b
:100fe4000740a4eb0c0400271eb1d4400023c6e93b
:100ff40000433946bde8f087002a53d0b2fa82f2a2
:10100400002a40f0b680491b4fea154e1ffa85f8b6
:101014000127b1fbfefc230c0efb1c1143ea014328
:1010240008fb0cf1994207d9eb180cf1ff3002d2fe
:10103400994200f2ec808446591aa3b2b1fbfef047
:101044000efb101443ea044408fb00f8a04507d93a
:101054002c1900f1ff3302d2a04500f2dc801846bf
:10106400a4eb080440ea0c40bee78b4208d9002eea
:1010740078d00027c6e9000138463946bde8f08734
:10108400b3fa83f77fb98b4202d3824200f2bd8068
:10109400841a61eb030301209846002ea9d0c6e907
:1010a4000048a6e7ffdec7f12005bb4022fa05fc95
:1010b4004cea030c01fa07f420fa05f821fa05f3c7
:1010c4004fea1c4e48ea0404b3fbfef9210c0efb64
:1010d40019331ffa8cf841ea034309fb08fa9a45cd
:1010e40002fa07f200fa07f10bd91ceb030309f12a
:1010f400ff3080f088809a4540f28580a9f102098a
:101104006344a3eb0a03a4b2b3fbfef00efb10335b
:1011140044ea034400fb08f8a04508d91ceb040486
:1011240000f1ff336bd2a04569d90238644440ea28
:101134000940a4eb0804a0fb02894c45c6464b4673
:1011440054d351d0002e69d0b1eb0e0264eb0304ea
:1011540004fa05f522fa07f3fc401d43c6e90054de
:10116400002746e73746304643e7184637e7074641
:101174001fe7c2f1200320fa03f7954001fa02f0b9
:1011840021fa03f34fea154e3843010cb3fbfef783
:101194001ffa85f80efb173341ea034107fb08f3f6
:1011a4008b4204fa02f407d9691807f1ff3c28d2ec
:1011b4008b4226d9023f2944cb1a81b2b3fbfef0fd
:1011c4000efb103341ea034100fb08f38b4207d9bd
:1011d400691800f1ff3c10d28b420ed90238294421
:1011e400c91a40ea074714e74145abd2b8eb020eef
:1011f40069eb0c0201381346a4e76046f0e7184691
:1012040095e76746d8e781467be7384645e7acf182
:10121400020c2b4410e702382c4421e73746e8e659
:020000040000fa
:020000040040ba
:101224002de9f84f80460e4699469500284601f070
:10123400cffe002800f0c1800746542001f0c8fe0c
:101244000446002857d007632a46a521384603f0f0
:1012540057f8276b002e54d0337884f8343053b1c8
:10126400334604f134010f3613f8012f01f8012f2e
:101274000ab1b342f8d1002384f843300a9e042e05
:1012840028bf0426e66266644ff0000bc4f848b039
:1012940004f1040a504603f0e5f804f1180003f0e1
:1012a400e1f82461c6f10506a6616462c4f84cb095
:1012b40084f850b0043d3d444a46414625f00700b9
:1012c40002f01afd20600b9b03b11c6002f040fe8b
:1012d4003e4a1368013313603d4b1b68abb13d4b71
:1012e4001b68bbb93a4b1b68da6ae36a9a4211d8a5
:1012f400374b1c600ee0384600f0a7fe4ff0ff307d
:101304005de0002384f83430b8e7314b1c60136887
:10131400012b28d0304a136801331360e06a2f4a46
:101324001168012383400b43136000eb8000514696
:101334002b4b03eb800002f05cff02f08fff254b88
:101344001b68002b3dd0224b1b68da6ae36a9a4281
:1013540039d2244b4ff080521a60bff34f8fbff342
:101364006f8f01202be01e4d284602f037ff05f158
:10137400140002f033ff05f1280002f02fff05f1fd
:101384003c0002f02bff05f1500002f027ff164e3f
:10139400304602f023ff154d284602f01fff144883
:1013a40002f01cff134802f019ff134802f016ff65
:1013b400124b1e60124b1d60ace74ff0ff30bde8ce
:1013c400f88f0120fbe70120f9e700bfc8a5402002
:1013d400bca54020eca54020d4a54020d8a54020a1
:1013e4005ca3402004ed00e008a540201ca540209b
:1013f40030a5402058a5402044a54020c0a5402049
:04140400c4a540201b
:020000040000fa
:020000040040ba
:1014080008b54f4b98474f4b9847eff3108172b68a
:101418004d4ad2f8883043f47003c2f88830bff3dd
:101428004f8fbff36f8f01b962b6484b484a5a6075
:101438009a6812f0010ffbd0444bdb6813f4c07fad
:1014480013d0444b0c221a60404b434a5a609a68a6
:1014580012f0010ffbd03d4b404a5a609a6812f0d7
:10146800010ffbd03e4b3f4a1a60bff34f8fbff3cb
:101478006f8f354cd4f8903223f00103c4f89032c2
:10148800d4f8943223f00103c4f89432bff34f8f99
:10149800bff36f8f01f0e2f9334b23f07f03a360b2
:1014a800324b9847636913f4003f12d1bff34f8f53
:1014b800bff36f8f0022c4f85022bff34f8fbff3e2
:1014c8006f8f626942f400326261bff34f8fbff3de
:1014d8006f8f1d4b5b6913f4803f29d11a4b002293
:1014e800c3f88420bff34f8fd3f88030c3f3c90605
:1014f800c3f34e335a0143f6e075134802ea050474
:10150800334644ea8371c0f86012013bb3f1ff3ff0
:10151800f7d1203a12f1200ff0d1bff34f8f0a4aca
:10152800536943f480335361bff34f8fbff36f8f19
:101538000f4b98470f4b984702f02cfefee700bf71
:101548004d2040004d20400000ed00e0000c0e4012
:101558000d00005aa8a540200c08005a0c07005a94
:1015680000180e40010000a500004000fd324000b8
:081578004d2040004d20400011
:020000040000fa
:020000040040ba
:1015800008b5544b5b7803b908bd01f0f5fd514b2c
:10159000997c514b1b68994206d0504802f0fefce2
:1015a0004c4b9a7c4c4b1a604a4b9b7c0a2b00f2aa
:1015b0008c80dfe803f0061c293445528a608a6e6d
:1015c0007d0001231a460021454801f073ff454b79
:1015d0001860b0f1ff3f06d0434b0a221a803d4b02
:1015e00001229a74d0e7414802f0d8fcf4e73e4b60
:1015f0001b88002bc8d102f0f3fa3b4b64221a80ff
:10160000344b02229a74bfe7374b1b88002bbbd1a7
:10161000354b05221a802f4b03229a7402e0324b7d
:101620001b8823b102f0defc02f022fcace701f0e3
:10163000f1fb2d4b64221a80264b04229a74f1e7a9
:10164000294b1b88002bedd101f0fcfd264b6422b9
:101650001a80204b05229a74e4e7234b1b88002b49
:10166000e0d1012002f052f91f4b64221a80194b7d
:1016700006229a74d6e71c4b1b88002bd2d101207e
:1016800001f0b4ff184b64221a80124b08229a749e
:10169000c8e7154b1b88002bc4d1002001f0a6ff22
:1016a000114b4ff4fa721a800a4b0a229a74b9e766
:1016b0000d4b1b88002bb5d1064b00221a740a4a29
:1016c000c821118003229a74ace7022b7ff65caf2d
:1016d000a8e700bff4a44020a0a54020b03b4000f4
:1016e000253f40009ca5402006a64020c43b40006a
:020000040000fa
:020000040040ba
:1016f0002de9f04184b0044601914ff000084646c0
:101700004546504f49e0013ba36323684bb1236931
:101710005bb902f0a5fd4ff00108404604b0bde8fa
:10172000f08102f0d5fca060f1e704f1100001f0b7
:1017300017fa0028edd0434b4ff080521a60bff3e8
:101740004f8fbff36f8fe4e702f08afd4ff0000880
:10175000e3e702a802f016fd29e084f8445032e0e5
:1017600084f8455035e002f0f5fba06800f0f0fe8b
:10177000804602f075fd3ce0204601f0f7f800f0ed
:1017800025fb09e0204601f0f1f800f01ffb2046a0
:1017900002f03cfd002840d1012602f0dbfba36be8
:1017a000002bb0d1019b002bced0002ed1d002f067
:1017b00057fd02f09ffd02f0cdfb94f844305bb280
:1017c000b3f1ff3fc9d094f845305bb2b3f1ff3fae
:1017d000c6d002f045fd01a902a801f061fd002874
:1017e000d0d1204602f012fd0028c5d02368002b7e
:1017f000b9d0019904f1240002f05cfc204601f00c
:10180000b5f800f0e3fa0028c6d14ff080533b60f2
:10181000bff34f8fbff36f8fbee7b8f1000f3ff4f8
:101820007caf02f097fb616a19b1236b1968c1f1b3
:101830000501a06801f05af802f012fd4ff000080f
:081840006be700bf04ed00e0be
:020000040000fa
:020000040040ba
:1018480038b5484b5b6913f0e0030fd1454b5b6932
:1018580013f0010f1cd1434b5b6913f0020f04d046
:10186800404b1b6913f0020f44d138bddbb23e4c2c
:1018780084f82d3002f028fa3a4be122da6000238e
:1018880084f82c30636a002b69d0a06a9847dde79a
:10189800354b93f82c30002bddd03249324b4a6956
:1018a80012f0010f13d01a6ad86990420fd98a69c9
:1018b800c2f30802486810f4003f9c69186a00f1f6
:1018c80001051d6214bf24f810202254e7e7264bb7
:1018d8001a6adb699a42bed3234b002283f82c2074
:1018e800204ae121d1605b6a002bb4d01e4a906a7d
:1018f8009847b0e71c4b1b7d002bb6d01a4b586895
:101908001c68184b184a04e091684d1c9560615c8e
:10191800d961596911f0020f0fd0916888420cd92a
:10192800596811f4003fefd091684d1c956034f868
:101938001110c1f30801d961ebe70b4b9a685b689a
:101948009a4292d3084b00221a75064a0221d160a6
:10195800db68002b89d0044a1069984785e7014b5a
:0c1968005b6978e70040024088a4402042
:020000040000fa
:020000040040ba
:101974002de9f04784b00446884601921d464ff095
:1019840000094e46434f39e02a464146204601f0bd
:101994005df9636a73b938b13e4b4ff080521a60f7
:1019a400bff34f8fbff36f8f02f058fc012004b0d8
:1019b400bde8f08704f1240001f0d0f80028f3d04a
:1019c400344b4ff080521a60bff34f8fbff36f8fc9
:1019d400eae702f043fc0020e9e702a802f0d0fbaa
:1019e4001ae084f8446023e084f8456026e0204649
:1019f40000f0baff00f0e8f94ff0010902f0a8fa8c
:101a0400a26be36b9a42bfd3022dbdd0019b002b86
:101a1400dfd0b9f1000fe0d002f020fc02f068fc46
:101a240002f096fa94f844305bb2b3f1ff3fd8d099
:101a340094f845305bb2b3f1ff3fd5d002f00efc11
:101a440001a902a801f02afce8b902f081fad4f84d
:101a540038a0d4f83c9002f001fcca45c7d10199e2
:101a640004f1100002f024fb204600f07dff00f09a
:101a7400abf90028c0d14ff080533b60bff34f8fc8
:101a8400bff36f8fb8e7204600f06eff00f09cf9bb
:081a940000208ce704ed00e0e6
:020000040000fa
:020000040040ba
:101a9c002de9f04f89461946d9e90153d9f8008050
:101aac00d9f80ca0002d8bb0a8bf28f002088346f3
:101abc00b8bf012518f010009646d2e900670290d5
:101acc0051d056ea07024ed0981e18f00804039421
:101adc00d9f8104018bf00f1ff30401b013c4ff00b
:101aec00000c049008f0020005900af804c0a1f163
:101afc0041000690012c0add56ea070235d1002d73
:101b0c0033dc049a5019002801dd059a6abb029a4d
:101b1c0062b1dee9006756ea070207d00aeb04025d
:101b2c00023c02f8011c30220af80420039a1ab174
:101b3c00013c20220af80420d9f81020cdf80080ae
:101b4c00013a121b0aeb0401584600f048ffdbf87f
:101b5c000430db0504d5d9f804309842b8bf1846d8
:101b6c000bb0bde8f08f1846afe706f00f00069af1
:101b7c000928d4bf30305730192a04f1ff340ed85d
:101b8c0040f0200cacf1610cbcf1190f07d8cde979
:101b9c0008e1079302f0dffbdde908e1079b0af897
:101bac000400300940ea07704fea171c013d064655
:041bbc0067469fe7f2
:020000040000fa
:020000040040ba
:101bc0002de9f047384b1b68002b67d1374b1f6856
:101bd00001371f60bfb1364b1b68bb4220d90025bf
:101be000344b1b68db6a03eb83039b00324ad358f8
:101bf000022b28bf0125314b1b68002b18bf012584
:101c00002846bde8f0872e4a11682e4b18681060f0
:101c100019602d4a13680133136002f085f8dae782
:101c20000025dff89c80dff8a890dff88ca021e089
:101c30001f4b4ff0ff321a60d2e71d4a1360cfe707
:101c400004f1180002f000f9e06ad9f8002001233d
:101c500083401343c9f8003000eb800031460aeba3
:101c6000800002f0c8fa134b1b68e26adb6a9a42f2
:101c700028bf0125d8f800301b68002bd8d0d8f831
:101c80000030db68dc6863689f42d6d3261d30468f
:101c900002f0daf8a36a002bd2d1d5e70b4a136819
:101ca000013313600025abe7d0a54020f0a540200c
:101cb000e0a54020bca540205ca34020f4a5402026
:101cc000c0a54020c4a54020e4a54020e8a54020b0
:041cd000d8a5402033
:020000040000fa
:020000040040ba
:101cd40008b5364b1978812921d01a469b78527859
:101ce400334802f059f9314b1b78713b292b59d8f1
:101cf400dfe803f01c235858585858585858585877
:101d040058585822275858585858585858585858b6
:101d14005858585858585858585858225850234bbf
:101d24005a788121234802f037f9dce7224b1f4a15
:101d340092781a7407229a7408bd1f4b09229a7468
:101d4400fae71a4b5b78033b092bf5d801a252f84a
:101d540023f000bf891d40003d1d40003d1d400093
:101d64003d1d40003d1d4000911d4000811d40006f
:101d74003d1d40003d1d4000911d4000002002f02b
:101d8400f5fad9e7012002f0f1fad5e7032002f0d1
:101d9400edfad1e7094b19780239c9b2084800f0c5
:101da400ffffc9e7074802f039f8c5e7f4a140206e
:101db4000835400028354000f4a4402010a64020f7
:081dc400f6a14020403540006b
:020000040000fa
:020000040040ba
:101dcc002de9f04102f0c0f82d4b1a68013a1a6067
:101ddc001b68002b4dd12b4b1b680bb9002449e021
:101dec000024294e294fdff8b880336803b3f36819
:101dfc00dc6804f1180002f021f8251d284602f0d9
:101e0c001df8e06a3a680123834013433b6000eb02
:101e1c008000294608eb800002f0e7f91c4b1b6898
:101e2c00e26adb6a9a42e0d31a4b01221a60dce7c1
:101e3c000cb101f073ff184b1c686cb1154e0125e9
:101e4c0001e0013c05d0fff7b5fe0028f9d0356064
:101e5c00f7e7114b00221a600e4b1c6854b10f4b64
:101e6c004ff080521a60bff34f8fbff36f8f012476
:101e7c0000e0002402f0eef92046bde8f08100bf3e
:101e8c00d0a54020c8a5402030a54020d8a5402092
:101e9c00bca54020f4a54020e8a5402004ed00e0be
:041eac005ca34020d3
:020000040000fa
:020000040040ba
:101eb000f8b5324c256b63689b699847606160692f
:101ec00002f0a0f8064602f0d9f8002d4dd094f8a3
:101ed0002c30013384f82c30304601f099fe246b0d
:101ee0002cb1a3681bb901250027244e11e0244d15
:101ef00000242e4627461fe0e06901f063fde368f9
:101f00000bb120699847346b002cf0d0a368002bec
:101f1000edd125756575a37813b9e368002bebd176
:101f2000204601f09dfaa378002be8d16770e6e720
:101f300001342035052c12d006eb44135b7d002bb9
:101f4000f6d006eb44135f75ab78012bf0d16b68cc
:101f500006eb44129360284600f03cfce8e7074a91
:101f600092f82c30013b82f82c3002f059fa0446ea
:101f700000f090f9204602f057faf8bd50a4402036
:041f8000bca240209f
:020000040000fa
:020000040040ba
:101f8400f8b5294e294c2a4d37e0aa2833d101232c
:101f9400237030e010b9022323702ce00023237057
:101fa40029e000232b70234a1380234b1870234b02
:101fb4001870234b1870032323701ee01f4a1378f4
:101fc400034413701e4a1378013bdbb213701949a2
:101fd4000a88571c0f801b49885463b90423237053
:101fe40009e0164b1b78184410f0ff0f01d10123b0
:101ff4002b70002323702b78a3b9337893b101f0ad
:102004006ffd2378042bf6d801a252f823f000bf09
:102014008f1f4000991f4000a71f4000c11f4000b0
:10202400e71f4000f8bd00bf18a6402012a64020bc
:1020340013a6402008a6402010a6402005a6402054
:0820440011a64020f4a1402088
:020000040000fa
:020000040040ba
:02204c007047db
:020000040000fa
:020000040040ba
:02204e007047d9
:020000040000fa
:020000040040ba
:1020500053ec102bc3f30a512de9f04140f2fd700f
:102060004e1e86421d4644d8a1f2ff30002835dbc3
:10207000332831dc264bc0f120084ff0ff3c03fa37
:1020800008f2a1f21f412cfa00fc10ee104a4ceab3
:10209000020c23fa01f24cea020c23fa00fe04ead5
:1020a0000c0605ea0e0724ea0c0256ea070425eaa4
:1020b0000e030fd0002a73f100040bda4ff48015e1
:1020c00005fa08f425fa01f10c43121925fa00f07b
:1020d00040eb030343ec102bbde8f0819fed0a7b3e
:1020e000bfee000b002a73f1000327fe000bbde8d2
:1020f000f0810029f0d10a4603f0004343ec102b95
:10210000eae700bfaff3008000000000000000001d
:04211000ffff0f00be
:020000040000fa
:020000040040ba
:102114002de9f047284b1e78022e36d089b24a1e8c
:1021240092b241b3254bb3f800c0254b1f8801324e
:102134000244644605464ff0000e0138014489b25a
:10214400dff888904ff001081ffa85fa631c9bb2f0
:1021540015f8010b09f80400b3f5967f34bf1c464b
:102164000024a74213d0c6469542edd1134b1c80e0
:10217400114b01221a70134b1b78b3b1032b04d1fa
:10218400104b02221a7001f0e3f9bde8f0870b4b03
:102194001c80514505d0084b1e70084ba3f800c0a5
:1021a400f3e7054b02221a70e5e7064b01221a7089
:1021b400054b03221a70e8e717a640200aa6402020
:1021c4000ca6402014a6402016a6402000a04020c3
:020000040000fa
:020000040040ba
:1021d40010b400222c4bc3f814212c494ff0ff33c8
:1021e4000b604b656ff4006008664ff4006048664e
:1021f400c1f89030c1f8a030202008616ff02004ad
:102204004c618863c1f8182101f500710b604b65be
:102214000b66c1f89030c1f8a0304ff480700861ab
:102224006ff480744c618863c1f8182101f5007162
:102234000b604b650b66c1f89030c1f8a0300a61a1
:102244004b618a63c1f8182101f500710b604b657d
:102254000b66c1f89030c1f8a0300a614b618a6303
:10226400c1f8182101f500710b604b650b66c1f8cc
:102274009030c1f8a0300a614b618a63c1f818211b
:102284005df8044b704700bf00800840000e0e400c
:020000040000fa
:020000040040ba
:102294002de9f8432a4b1a6b59691961002a40d079
:1022a4009368b3f5004f33d3254b5b6947f6ff744e
:1022b400002514eb030845f10009214e73689b695e
:1022c400984782b200233169814206d94ff6ff71e3
:1022d40052184ff0000141eb03031949096a5618db
:1022e40043f10007b94508bfb04524d20a44144b52
:1022f400da61134bdb699bb213b9114b0122da612a
:102304000f4bd8695b685b6980b29847bde8f88376
:1023140094680b4b5b69002514eb030845f1000935
:10232400cbe7074b5b6947f6ff74002514eb030802
:1023340045f10009c1e7024bc3f81c80d9e700bf8f
:0423440050a4402041
:020000040000fa
:020000040040ba
:102348002de9f04106460d4690461f4601f072fb06
:10235800002841d0224b93f90030022b06d04ff0d1
:10236800ff3401f00dfb2046bde8f081002d30d090
:10237800b5422ed31b4b1b7853b11b4b01241a7843
:1023880042b101342033052cf9d14ff0ff34e8e78e
:102398000024144b01221a7000225a701a755a75bb
:1023a8009df818209a705d60c3f80c801f61ad1b02
:1023b8009d600e4a1288a4b244ea0244dc61531cb0
:1023c8009bb24ff6ff72934208bf0123074a13805e
:1023d800c7e74ff0ff34c4e74ff0ff34c3e700bf4f
:1023e80050a44020bca24020dca240200ea64020e1
:020000040000fa
:020000040040ba
:1023f800002948d038b50d46002841d1234801f0be
:10240800a5fe012802d04ff0ff3038bd2b68204cc4
:102418006360db689847e0601e4bb3fbf0f34ff452
:10242800617090fbf3f00230206295f9043023725a
:10243800002121614ff6ff73a36147f6ff73e36143
:102448006162a162216384f82c1063681b681248da
:10245800984763681b690bb1208b98470c4ce0695f
:1024680063685b6980b2984763685b689847a02295
:1024780000210a4801f042ff022323702046c4e7e6
:102488004ff0ff30c1e74ff0ff30704784a4402081
:1024980050a4402000a3e111b11e4000bca240207e
:020000040000fa
:020000040040ba
:1024a800244b1b681bb1244b01221a60704710b5de
:1024b800214b00221a60214b1b681b6b1a68b2f172
:1024c800a53f03d15a68b2f1a53f23d01b4b18682a
:1024d8001968343101f06afe194b1b68b3fa83f3ab
:1024e800dbb2c3f11f03174a9900c81802eb80003a
:1024f800446864684460194402460832944212d021
:1025080003eb83030f4a02eb83035b68da680b4b28
:102518001a6010bd9a68b2f1a53fd7d1db68b3f154
:10252800a53fd3d1d8e760680a46064901eb820285
:102538005060e5e7d0a54020f4a54020bca5402088
:08254800d8a540205ca340204f
:020000040000fa
:020000040040ba
:10255000002849d038b50446c26a24490968c96ac6
:102560008a4238d28169002905db20490968c96a95
:10257000c1f10501816102eb82021d4901eb82027a
:102580006169914205d0194a1268d26ae26201205b
:1025900029e0251d284601f057fc38b915490b687c
:1025a000e06a0122824023ea02030b600f4b1b68a2
:1025b000d86ae0620f4a1168012404fa00f30b4361
:1025c000136000eb80002946094b03eb800001f00b
:1025d00012fe204607e0054a1268406cd36a984212
:1025e0002cbf0020012038bd00207047bca5402032
:0825f0005ca34020d8a54020a7
:020000040000fa
:020000040040ba
:1025f8002de9f041d2e900230c4686b007465fea90
:10260800d37820684968a5680590e66841d05242a9
:1026180063eb4303002908db20f002000590b8f1c2
:10262800000f02d1059948072ad5691e05a802900e
:102638000a20cde90010204600f0cafab8f1000fd0
:1026480002d1059b59071fd5b8f1000f00f1ff30e3
:1026580014bf2d232b2333542269059b0093013a81
:102668002b46121a3118384600f0bbf97b68db0597
:1026780003d563689842b8bf184606b0bde8f08134
:102688000807d2d42946d1e71a07e5d5013820230f
:08269800e1e70029c0dac5e703
:020000040000fa
:020000040040ba
:1026a000882930b534d012dc81293fd003dc802961
:1026b0003cd0002030bd82290ed08429f9d11c687d
:1026c00054f8041b1c60f2b10ab2d3171de0a02914
:1026d00027d00cdc9029ecd11968073121f00701d3
:1026e000f1e802451960c0e900450120e2e7c02990
:1026f00001d0f029ddd11a68111d1960136803603b
:1027000000234360f1e78ab20023c0e90023ece72d
:102710001c6854f8041b1c600ab14ab2d5e7cab25f
:10272000f2e71a68111d19601268cee719680c1dce
:102730001c600ab10a68c8e70b68c0e90032d4e738
:020000040000fa
:020000040040ba
:1027400070b504460e461c4b1d681c4b18680430bf
:1027500001f07afb48b9194b1a6819490b68d06a1d
:102760000122824023ea02030b60b4f1ff3f00d153
:102770006eb92c44114b1b685c60a5420ed9114bfd
:1027800018680e4b1968043101f0e0f970bd0b4b6d
:10279000196804310c4801f02efdf7e70b4b18685f
:1027a000064b1968043101f0d1f9094b1b68a342ab
:1027b000ecd9074b1c60e9e7f0a54020bca5402000
:1027c000d8a54020c4a5402044a54020c0a5402055
:0427d000e0a5402020
:020000040000fa
:020000040040ba
:1027d40030b32de9f0418646204b1a6bd0f80880bf
:1027e400c2b193684046002198451bd300240025bc
:1027f4009368e41845f100059369dbb1d3f808c088
:1028040014eb0c0645f10007b94208bfb04211d3de
:102814001a46ede7c0f80880104b186301201ae04f
:10282400002070470d4bc3f830e0cef81820002488
:10283400012004e0cef81830c2f818e00020a8eb1c
:102844000404cef80840def8183023b1def808108e
:102854009a68521a9a60bde8f08100bf50a44020e3
:020000040000fa
:020000040040ba
:102864001e4b1f4a9342f0b438bf002103d203f831
:10287400011b9342fbd11b4ad2e9000150ea010338
:102884004ff0000610d09468034602f10c076cb9af
:1028940021b1014403f8016b9942fbd13a46d2e9d4
:1028a400000150ea0103eed1f0bc704759b101f1c7
:1028b4000c030c38801a1a443b461c1813f8015bad
:1028c40025709342f9d111f0030318bf012303ebe0
:1028d400910107eb81073a46e1e700bf0000402081
:0828e40000004020f008400054
:020000040000fa
:020000040040ba
:1028ec00002838d038b50446426c914238bf1146a6
:1028fc00c26a8a4202d0806c012800d038bde162e5
:10290c00a069002802dbc1f10501a16102eb820282
:10291c00114901eb820261699142efd1251d2846d4
:10292c0001f08cfa38b90d490b68e06a012282403b
:10293c0023ea02030b60e06a084a11680123834012
:10294c000b43136000eb80002946034b03eb800024
:10295c0001f04bfcd2e770475ca34020d8a5402087
:020000040000fa
:020000040040ba
:10296c0070b5054601f0f0fa95f8454064b2002cbc
:10297c0011dd6b6a7bb105f1240606e001f034fd34
:10298c00013c64b23cb16b6a2bb1304600f0e2f80a
:10299c000028f5d0f2e7ff2385f8453001f05afc0a
:1029ac0001f0d2fa95f8444064b2002c11dd2b6989
:1029bc007bb105f1100606e001f016fd013c64b296
:1029cc003cb12b692bb1304600f0c4f80028f5d08f
:0e29dc00f2e7ff2385f8443001f03cfc70bdab
:020000040000fa
:020000040040ba
:1029ea002de9ff471d460c9b13f00108074689464f
:1029fa00144624d1aa4222da2e1b102e32464ff058
:102a0a00200128bf10226846b24601f076fc0f2e3c
:102a1a001edc4fea1a136ff00f0202fb03a269468b
:102a2a00384600f0e8ffb8f1000f04d122464946c3
:102a3a00384600f0e0ff284604b0bde8f087224699
:102a4a004946384600f0d7ffac42d5db2546f2e7c7
:0e2a5a0010226946384600f0ceff103ed7e746
:020000040000fa
:020000040040ba
:102a6800002835d038b50446826c013a8264c06ac1
:102a7800616c884200d00ab1002038bd251d284667
:102a880001f0def970b9e26a02eb82039b0011499a
:102a9800cb583bb910480368012101fa02f223ea36
:102aa80002020260606ce062c0f10503a3610a4a99
:102ab8001168012404fa00f30b43136000eb800053
:102ac8002946044b03eb800001f091fb2046d4e734
:0c2ad800002070475ca34020d8a54020df
:020000040000fa
:020000040040ba
:102ae400842910b523d00cdc812903d0822913d08a
:102af40080290bd119680c1d1c600b6803601a60d7
:102b040013e0902921d003dc882917d0002010bdc0
:102b1400a029efd0c029ece719680c1d1c600b68d4
:102b24000360d1171046c3e900010120efe71968db
:102b34000c1d1c600b6803601a80f6e719680c1df5
:102b44001c600b6803601a70efe719680c1d1c60a9
:0c2b540009680160d317c1e90023e6e71f
:020000040000fa
:020000040040ba
:102b600038b5c368dc6804f11805284601f06cf933
:102b7000134b1b68e3b9251d284601f065f9e06a8f
:102b8000104a1168012383400b43136000eb80005f
:102b900029460d4b03eb800001f02dfb0b4b1b680e
:102ba000e26adb6a9a4208d90120094b186005e005
:102bb0002946084801f01ffbf0e7002038bd00bfa0
:102bc000d0a54020d8a540205ca34020bca5402033
:082bd000f4a5402030a54020cf
:020000040000fa
:020000040040ba
:102bd8002de9f84f04460c9f6668d4f80cb02469b8
:102be80010463a68013c002502f0020a0b9a0bf8dd
:102bf8000450002e1946b8bf0126012390464fea1b
:102c0800e279002c03dcd3b12046bde8f88f50ea06
:102c1800010209d1721b002a06dc0a9a521b002afb
:102c2800f1ddbaf1000feed042464b4601f034f820
:102c3800013c134630320bf804200135e1e73b68cc
:082c480023f010033b60dfe7fd
:020000040000fa
:020000040040ba
:102c500070b504461646856b026c5ab903681bb101
:102c600000200135a56370bd8068fff7fdfe0023dd
:102c7000a360f6e76eb9406801f0d3fa6368226c8e
:102c800013446360a268934219d32368636030469b
:102c9000e7e7c06801f0c5fa226c5242e3681344ca
:102ca000e36021688b4202d2a3681a44e2600db14e
:102cb000022e01d00020d4e7013d0020d1e73046ac
:022cc000cfe75c
:020000040000fa
:020000040040ba
:102cc200f0b50c4649682368a768e56887b0002913
:102cd2000593a4bf23f00203059305ab02930823d7
:102ce200cde900730646d2e900232046fff773ffc1
:102cf200059bd90642bf00f1ff3030232b54059bc0
:102d02001a0742bf00f1ff3020232b542269059b92
:102d12000093013a3b46121a29183046fff764fe27
:102d22007368db0503d563689842b8bf184607b0dd
:022d3200f0bdf2
:020000040000fa
:020000040040ba
:102d340038b5154d01236b7000242c70ec702c7287
:102d44002c7401f0a5f8ac7400f048ff01f086f98a
:102d54000e4b1c600e4b1c600e4b1c6005f10c00ee
:102d640001f0f6f9012805d10b4b1b781bb1064b7a
:102d740002221a7038bd094801f0eaf90128f9d194
:102d8400054b01221a70f2e7f4a4402094a54020d8
:102d940098a5402090a5402078a540207ca54020ff
:020000040000fa
:020000040040ba
:102da4002de9f843884621b3164b1f68c72f27d84f
:102db400c7f1c80c84444e1ef6b2013606440246de
:102dc400114ddff848e019464ff000092b6812f85e
:102dd400014b0ef80340d419241a0c60c62b94bf7f
:102de40001334b462b60b24203d09445eed1002010
:102df40004e04146012001f023f90120bde8f883f5
:102e04000020fbe790a5402098a540202ca140205d
:020000040000fa
:020000040040ba
:102e140010b58eb0aa238df8043000238df8053048
:102e24001a238df8063011238df8073001238df80d
:102e3400083002228df809208df80a3005238df818
:102e44000b3014238df80c3009238df80d300b4c06
:102e5400621e0df10d001234512312f8011f00f807
:102e6400011f0b44dbb2a242f7d15b428df8213043
:102e74001e2101a8fff74cf90eb010bd38424000e6
:020000040000fa
:020000040040ba
:102e840000282dd030b40446174b1b7d53bb164b82
:102e94001860596000229a6001221a75134b124a75
:102ea40004e09068451c9560205cd861586910f076
:102eb400020f0fd0906888420cd2586810f4003f7b
:102ec400efd09068451c956034f81000c0f30800fa
:102ed400d861ebe7054b02229a60012030bc7047b1
:102ee400002070470020f9e788a4402000400240f9
:020000040000fa
:020000040040ba
:102ef40038b504460d4601f02bf82268216ce36bcb
:102f040003fb01f3d018a0600020a06362605b1a89
:102f14001344e360ff2384f8443084f84530a5b9b2
:102f240023691bb901f09af9012038bd04f110009e
:102f3400fff714fe0028f5d0084b4ff080521a60ba
:102f4400bff34f8fbff36f8fece704f1100001f074
:102f540045f904f1240001f041f9e3e704ed00e050
:020000040000fa
:020000040040ba
:102f640080b5164c164f174edff860802368bbb14e
:102f740000f0eefffb68dd68281d00f063ff336896
:102f8400013b33602368013b236001f067f9286b40
:102f9400fff75bf82846fff758f82368002be7d1c2
:102fa400094b1b68012be1d94ff08053c8f800305e
:102fb400bff34f8fbff36f8fd8e700bfcca540207e
:102fc40058a54020c8a540205ca3402004ed00e0a3
:020000040000fa
:020000040040ba
:102fd40038b5044610f0070f02d020f00704083477
:102fe40001f086f9124b1b687bb1124b1b681c4421
:102ff40049f6f77294420ed8a3420fd3fef7e4fecb
:1030040001f0e1f80025284638bd094a0a4b23f0af
:1030140007031360e9e7fef7d7fef1e7044a1568f2
:103024001d44044b1c60fef7cffe002debd1e7e7f7
:0c303400b4a54020b8a5402008004020b2
:020000040000fa
:020000040040ba
:1030400008b5134b1b78c3b112490a88531c9bb2b5
:103050000b801149885cb3f5967f02d30d4b00229b
:103060001a800e4b1b880b4a12889b1a18bf01232b
:10307000074a137001f062f808bd094b1b78022b58
:10308000fad1074b03221a70064b0a221a70f3e793
:1030900017a640200ca6402000a040200aa64020f1
:0830a00014a6402015a64020f3
:020000040000fa
:020000040040ba
:1030a800164b174a9a629a6e12f0020ffbd0134a17
:1030b800136b23f07003136313469a6e12f0080f14
:1030c800fbd00e4a136b23f4407343f480731363ed
:1030d80013469a6e12f0080ffbd0084a136b23f0c0
:1030e800030343f00203136313469a6e12f0080faa
:1030f800fbd0024b034a1a61704700bf00060e401e
:08310800013f1820003c830088
:020000040000fa
:020000040040ba
:1031100000b583b0124b0193002300938022114924
:103120001148fef77ff8012802d003b05df804fbd8
:103130004ff0200372b683f31188bff36f8fbff394
:103140004f8f62b6094b4ff0ff321a60084b0122d5
:103150001a60084b00221a6000f06cfae5e700bf25
:10316000dca5402040444000652f4000e0a5402001
:08317000eca54020f0a5402071
:020000040000fa
:020000040040ba
:1031780010b5144b1b7813b1012b11d010bd0021d1
:10318800114801f01bf90021104801f01df90d4c00
:10319800012104f13c0000f055fb01232370ede709
:1031a8000b4b1b7813f0010fe8d001f013f900283e
:1031b800e4d1fff741ff064a1378013bdbb21370f5
:1031c800dce700bf10a44020d5424000c5364000cf
:0431d80019a64020d4
:020000040000fa
:020000040040ba
:0431dc007047704781
:020000040000fa
:020000040040ba
:1031e000eff30980bff36f8f154b1a681ef0100fb5
:1031f00008bf20ed108a20e9f04f10602de909008a
:103200004ff0200072b680f31188bff34f8fbff3e9
:103210006f8f62b6fff748f94ff0000080f3118816
:1032200009bc19680868b0e8f04f1ef0100f08bf1d
:10323000b0ec108a80f30988bff36f8f704700bf2e
:04324000bca54020c9
:020000040000fa
:020000040040ba
:1032440000b585b0aa238df8003000238df8013035
:103254000b228df8022013228df8032006228df80c
:10326400042040228df805208df806308df80730b3
:103274008df808308df809308df80a308df80b3050
:103284008df80c308df80d309c238df80e300f2105
:0c3294006846fef73dff05b05df804fb46
:020000040000fa
:020000040040ba
:1032a00070b504460d4600f055fe124b1a682b68a7
:1032b000b3f1ff3f16d061680f4800682668864268
:1032c00001d0914213d9501a834203d800232b60b6
:1032d000012408e09b1a0b442b60204600f052ffab
:1032e000002400e0002400f0bbff204670bd012454
:0c32f000f9e700bff0a54020e4a5402055
:020000040000fa
:020000040040ba
:1032fc000e4a38b5002313600d4a0e4c13600e4a6b
:10330c000e4d13600e4a13600e4a13600e4a536240
:10331c0013610123936001f00ff8fff759ffac42e2
:10332c0000d338bd54f8043b9847f8e7fca540207f
:10333c00cca3402074014000c8a340207801400079
:0c334c00c0a34020c4a34020d0a3402018
:020000040000fa
:020000040040ba
:1033580038b5044600f06efb10b3204600f0f2fad0
:103368000546b0b14378b3b983680bb94368836045
:103378000c4b93f82c3043b9284600f083fa00240c
:103388002c756c7501236b7006e02846fff71efa52
:10339800f5e7012400e0002400f0f2fa204638bde9
:0833a8000124fbe750a44020c2
:020000040000fa
:020000040040ba
:1033b0002de9ff41134dd1f80080af88adf80c70b6
:1033c00006462868029002aca8798df80e00002a03
:1033d00018bf1446d1e901571a461bb9204600f020
:1033e00099ff0246002d02dbaa4228bf2a46cdf8eb
:1033f00000803b4621463046fff7f7fa04b0bde8af
:08340000f08100bf60444000b0
:020000040000fa
:020000040040ba
:10340800f0b50c4649682368a668e76887b00029c4
:103418000593a4bf23f00203059305ab02930a2387
:10342800cde900630546d2e900232046fff7d0fb2b
:103438002269059b0093013a3346121a3918284627
:10344800fff7cffa6b68db0503d563689842b8bf0e
:06345800184607b0f0bdac
:020000040000fa
:020000040040ba
:02345e007047b5
:020000040000fa
:020000040040ba
:103460000146134b1a6b0ab1824203d11346002264
:1034700005e01a469369002b18bf9942f9d1abb108
:1034800010b48b691bb18c689868204498603ab17d
:103490008b699361002000238b615df8044b7047ba
:1034a000034b1a6b92691a630120f4e700207047fe
:0434b00050a44020c4
:020000040000fa
:020000040040ba
:1034b40070b582b0002b08bf00281bd00646cab1e5
:1034c4001d4610460c460e4bd9684ff47a72002301
:1034d400a1fb000100f0e2fb0095234632460146c1
:1034e4000020fef72fff0446b0f1ff3f04d0fff7a2
:1034f40031ff01e04ff0ff34204602b070bd00bf41
:0435040050a440206f
:020000040000fa
:020000040040ba
:103508006576656e743a20307825303278203078c8
:1035180025303278203078253032780d0a000000c6
:103528006576656e743a20307825303278203078a8
:10353800253032780d0a0000756e65787065637401
:0c354800796564206576656e740d0000e6
:020000040000fa
:020000040040ba
:1035540008b50e4b1b78bbb10d490a88531c9bb2ae
:103564000b800c49885cb3f5967f02d3084b00228c
:103574001a80094b1b88064a12889b1a18bf01231c
:10358400024a137000f0d8fd08bd00bf17a6402002
:0c3594000ca6402000a040200aa6402009
:020000040000fa
:020000040040ba
:1035a00008b500f09ffefff77ffdfef713fe00f069
:1035b000b9fd4ff400430a4a5360b03a536000f03b
:1035c0007bfc00f023f9fff7b5fb06490020fef76e
:1035d00013ff054b186000f013ff00f0f7f808bd6b
:0c35e00000190e4030444000a4a540201b
:020000040000fa
:020000040040ba
:1035ec0000b583b0aa238df8003000228df801209d
:1035fc0004238df8023035238df80330094b1b7ce6
:10360c008df804308df805008df8062039331844f8
:10361c0040428df8070008216846fef775fd03b09f
:08362c005df804fbf4a440204a
:020000040000fa
:020000040040ba
:1036340010b50e4b1a6842f460021a601a6842f020
:1036440060421a6000f0d6fb0024094b1c6000f0b5
:10365400fbfd084a136843f04043136000f0b6fbd7
:10366400fef720ff00f04afc204610bd20ed00e0ec
:08367400b0a5402034ef00e096
:020000040000fa
:020000040040ba
:10367c0010b50278202a034600f10100f9d0a2f11e
:10368c0009010429f5d92b2a07d02d2a11d10121a2
:10369c000133013b00200a2403e00021f8e76043da
:1036ac00801a13f8012f303a092af8d901b940428f
:0636bc0010bd0021ede746
:020000040000fa
:020000040040ba
:0236c200fee721
:020000040000fa
:020000040040ba
:1036c40010b50e4c94f83a305a1c84f83a2094f809
:1036d4003c2023441a72012104f13c0000f0b4f8a8
:1036e40094f83a30312b02d9002284f83a20044a63
:1036f40013780133dbb2137010bd00bf10a4402057
:0437040018a64020a3
:020000040000fa
:020000040040ba
:1037080038b5044600f0c6fd002c16db63090c49e9
:1037180051f8235004f01f04e54005f0010501228b
:1037280002fa04f4203341f82340bff34f8fbff36c
:103738006f8f00f0b8fd284638bd0025f9e700bfb7
:0437480000e100e0bc
:020000040000fa
:020000040040ba
:10374c0010b5054c237833b9044b13b10448aff3cf
:10375c0000800123237010bdd8a44020000000007d
:10376c000000000008b5034b1bb103490348aff33d
:10377c00008008bd00000000dca440200000000018
:020000040000fa
:020000040040ba
:10378c0008b50c4b1b7813b1013b0a4a13700a4b5a
:10379c001b7843b1013bdbb2074a13701bb9074bd3
:1037ac001b78012b00d008bd044b02221a70fff7c6
:1037bc00cbfef8e715a6402016a6402014a6402004
:020000040000fa
:020000040040ba
:1037cc000d4bd96821f4e0610904090c0b4a0a433a
:1037dc00da60bff35f8f62b6e02283f82320a3f593
:1037ec00406383f80d234ff40051196083f81723bd
:1037fc004ff400021a60704700ed00e00000fa057b
:020000040000fa
:020000040040ba
:10380c000d4b4ff486721a6050221a604ff40c6202
:10381c005a6051221a62094b00229a61da611a62cb
:10382c0083f82c205a621a605a609a601a75da6012
:10383c0083f82d20704700bf0040024088a4402030
:020000040000fa
:020000040040ba
:10384c00c0b138b505460c4a92f82c200ab10020bc
:10385c0038bd0c4600f036fa074b002283f82d20b9
:10386c009d61dc611a62012083f82c00034be1227c
:10387c009a60ede70020704788a440200040024089
:020000040000fa
:020000040040ba
:10388c0038b505460d4c63689b6998476061606963
:10389c0000f0b2fb044600f0b5f9204600f0e8fb5e
:1038ac002846fef791ff00b938bd00f0b3fd044681
:1038bc00fef7eafc204600f0b1fdf5e750a44020ed
:020000040000fa
:020000040040ba
:1038cc0070b5b9b115460ab1022801d9284670bda8
:1038dc000a4b2bb108461146aff30080284670bd49
:1038ec000c468e1814f8010bfff7b3fdb442f9d156
:1038fc00284670bd0d46284670bd00bf0000000074
:020000040000fa
:020000040040ba
:10390c0000b583b0aa238df8003000238df8013068
:10391c0002238df802301c238df80330002814bfcd
:10392c00812300238df80430c3f1e2038df80530b8
:0e393c0006216846fef7e8fb03b05df804fbc9
:020000040000fa
:020000040040ba
:02394a00fee796
:020000040000fa
:020000040040ba
:10394c00431e13f1030f0fd883b2042b0ed80a4a6f
:10395c0002eb4312d26982420ad15a0106498a5caf
:10396c0042b101eb431070470020704700207047b4
:0c397c000020704700207047bca24020d3
:020000040000fa
:020000040040ba
:1039880008b50b4b93f90830002b08db590903f0f5
:103998001f03012202fa03f3064a42f82130044bbe
:1039a80093f82c3003b108bd034800f0dbfbfae7bd
:0c39b80050a4402000e100e084a4402066
:020000040000fa
:020000040040ba
:1039c40010b5044600f038f8b0b12046fff7bcff4c
:1039d400044678b1437843b900202075607520709f
:1039e4000446fff7cfff204610bdfff737fd002345
:0c39f4006370f1e70124f4e70124f4e71c
:020000040000fa
:020000040040ba
:103a000038b5436813f4807f0446154610d0036927
:103a100040699a4228bf1d462a4600f002fc6269ae
:103a20005319636123695b1b23610023535538bd20
:0a3a3000db06fcd400f01bfdf9e7f3
:020000040000fa
:020000040040ba
:023a3a00fee7a5
:020000040000fa
:020000040040ba
:103a3c0008b50b4b93f82c300bb1012008bd4ff699
:103a4c00ff71084800f0e8fa012801d00020f5e7e2
:103a5c00034b93f90800fff751fe0120eee700bf7e
:083a6c0050a4402084a4402076
:020000040000fa
:020000040040ba
:103a740007b54a68c0b2d2050b468df8070006d5d3
:103a84004a69511c5961107003b05df804fb0122ae
:103a94000df10701184600f0e8fc10b19df807008d
:083aa400f2e74ff0ff30efe7fd
:020000040000fa
:020000040040ba
:103aac0030b50c4a002312f8134024b902eb43033f
:103abc005b78184630bd01680d78a54209bf02eb52
:103acc00430301335b78013114bfdbb201600a2b75
:083adc00e9d9eee708414000c2
:020000040000fa
:020000040040ba
:103ae4000a4b93f83b104a1cd2b283f83b200b4498
:103af400187a312a03d9054b002283f83b20044a63
:103b04001378013bdbb21370704700bf10a4402050
:043b140018a640208f
:020000040000fa
:020000040040ba
:103b180000b583b0fdf730fd074b019301230093f7
:103b280000234ff4806205490548fdf777fbfff74e
:103b3800ebfa03b05df804fbaca54020e843400075
:043b480039444000bc
:020000040000fa
:020000040040ba
:103b4c0030b40d68b5f1ff3f02d000f1080202e07d
:103b5c00026904e01a4653681c68ac42fad95368ef
:103b6c004b6099608a60516008610368013303609f
:043b7c0030bc7047a2
:020000040000fa
:020000040040ba
:103b80000023074a1360074a1360074a1360074a75
:103b9000531ec732002103f8011f9342fbd1704727
:103ba00094a5402098a5402090a540202ca140201d
:020000040000fa
:020000040040ba
:103bb000424d37312073746174653a202530326488
:103bc0000d0a000063616e2774206f70656e2053cc
:103bd00059535f54494d45206472697665720000ff
:020000040000fa
:020000040040ba
:103be00010b50023074a1370074a1370074b1b7860
:103bf0002bb1064cfff776ff2378002bfad1fff7a5
:103c0000bfff10bd13a6402012a6402018a64020da
:020000040000fa
:020000040040ba
:103c10000a4b1b6b73b168b1002105e09a68801aea
:103c200099609b6933b128b19a688242f6d39a6849
:103c3000101a9860014b5a691a61704750a44020cd
:020000040000fa
:020000040040ba
:103c400008b54ff0200372b683f31188bff36f8f6e
:103c5000bff34f8f62b6fdf7b3ff18b1034b4ff0c0
:103c600080521a60002383f3118808bd04ed00e040
:020000040000fa
:020000040040ba
:103c700070b506460d4601fb00f04830fff7aaf983
:103c8000044648b155b100f148032360e66325645a
:103c900001212046fff72ef9204670bd0346f4e7c8
:020000040000fa
:020000040040ba
:103ca00053b94ab9002908bf00281cbf4ff0ff31a3
:103cb0004ff0ff30fcf75abcadf1080c6de904ceb3
:103cc000fdf748f9ddf804e0dde9022304b07047b0
:020000040000fa
:020000040040ba
:103cd000094b5b6913f0e00f0dd0074b4ff4807276
:103ce0001a605b6913f0010f05d0034b9a695a699a
:0c3cf00012f0010ffad1704700400240b2
:020000040000fa
:020000040040ba
:103cfc004ff0807340f8043c21f0010140f8081c9f
:103d0c00054b40f80c3c40f8202c6ff0020340f8b7
:0c3d1c00243c4438704700bf013f4000c9
:020000040000fa
:020000040040ba
:103d2800084b1b681b6823b9074b4ff0ff321a601a
:103d38007047044b1b68db68db685a68024b1a60e3
:0c3d4800704700bfc0a54020e0a540204f
:020000040000fa
:020000040040ba
:103d540070b5002902fb01f614460d4618bf14463f
:103d640001463246184608bf002400f07efb864216
:0a3d740018bfb0fbf5f4204670bd47
:020000040000fa
:020000040040ba
:103d7e00802910db812901dd83290cd113680733db
:103d8e0023f0070303f108011160d3e90023c0e912
:0a3d9e000023012070470020704749
:020000040000fa
:020000040040ba
:103da800074b1b8813b1013b054a1380054b1b7851
:103db8002bb113f0010f02d1013b024a1370704777
:083dc80006a6402019a64020c8
:020000040000fa
:020000040040ba
:103dd00008480068006880f308884ff0000080f30e
:103de000148862b661b6bff34f8fbff36f8f00dfe9
:083df00000bf000008ed00e037
:020000040000fa
:020000040040ba
:103df800054b00221a6005490a60054a0549116009
:103e080007221a60704700bf10e000e018e000e0e9
:083e180014e000e0df93040058
:020000040000fa
:020000040040ba
:103e200010b5084c2368196800f0caf8002807dbb1
:103e300023680a20196800f00bfbc00f404210bd38
:083e40000120fbe7d4a440209f
:020000040000fa
:020000040040ba
:103e48000369416882688a60416851605a688242a1
:103e580006d0002202611a68013a1a601868704791
:063e680082685a60f5e7d4
:020000040000fa
:020000040040ba
:023e6e00fee76d
:020000040000fa
:020000040040ba
:103e7000064b1b78032b00d07047054b1b78002b9b
:103e8000fad1024b00221a70f6e700bf14a64020b8
:043e900015a6402013
:020000040000fa
:020000040040ba
:103e9400054a0023137082f83a3082f83b30034a13
:103ea4001370034a1370704710a4402019a64020d1
:043eb40018a64020ec
:020000040000fa
:020000040040ba
:103eb800064b4ff480721a634ff440425a60002256
:103ec800da6104215962024b1a60704700c0004051
:043ed80080a5402061
:020000040000fa
:020000040040ba
:103edc0008b5064b186a10f0140005d0044b1b688b
:103eec0013b1034a5168984708bd00bf00c0004099
:043efc0080a540203d
:020000040000fa
:020000040040ba
:103f000082b0002301934ff0200372b683f311882f
:103f1000bff36f8fbff34f8f62b6019b002bfcd0b6
:043f200002b0704734
:020000040000fa
:020000040040ba
:0c3f240008b5fff73ffffff72ffc08bdba
:020000040000fa
:020000040040ba
:103f3000074b19680868b0e8f04f80f30988bff3b1
:103f40006f8f4ff0000080f311887047aff300804f
:043f5000bca54020ac
:020000040000fa
:020000040040ba
:103f54004ff0200372b683f31188bff36f8fbff362
:103f64004f8f62b6024a136801331360704700bf73
:043f7400b0a5402094
:020000040000fa
:020000040040ba
:103f780010b5024600210120fff776fe044638b14d
:103f8800002181600160c1600b460a46fdf7eefc26
:043f9800204610bdf2
:020000040000fa
:020000040040ba
:103f9c000fb407b5064b04aa1b6852f8041b18682b
:103fac00019200f09df803b05df804eb04b070478b
:043fbc00d4a4402029
:020000040000fa
:020000040040ba
:103fc00070b50e46054600f0a5f933460446024694
:103fd00001212846fff7befe001b18bf4ff0ff303f
:023fe00070bdb2
:020000040000fa
:020000040040ba
:023fe200fee7f8
:020000040000fa
:020000040040ba
:103fe40008b5fdf7cdff054b1b7803b908bdfdf7f8
:103ff4006ffe024b00221a70f8e700bf13a64020a0
:020000040000fa
:020000040040ba
:10400400064b1b69834203d2044b1b69c01a7047d9
:10401400024b1b69c3f580331844704750a44020f9
:020000040000fa
:020000040040ba
:1040240008b54ff6ff73994208bf4ff0ff3100689f
:0e403400fdf75cfb012814bf0020012008bd31
:020000040000fa
:020000040040ba
:02404200fee797
:020000040000fa
:020000040040ba
:1040440008b5054b1b782bb1034b5b6813b1024acf
:0c4054009268984708bd00bf6ca5402092
:020000040000fa
:020000040040ba
:104060000023034a1380034a1380034a13707047e6
:0c4070000aa640200ca6402017a6402005
:020000040000fa
:020000040040ba
:10407c00054a536a18445062834200d87047936ac9
:0c408c0001339362fae700bf50a440200b
:020000040000fa
:020000040040ba
:10409800b94340007d434000894340001944400033
:0c40a80095434000a1434000ad434000a0
:020000040000fa
:020000040040ba
:1040b40010b50c46044b19681831fff745fd012172
:0c40c4002046fef73bfb10bdbca54020d1
:020000040000fa
:020000040040ba
:1040d000054b1b6823b1044b1a68936c013393643e
:0c40e000014b1868704700bfbca54020d1
:020000040000fa
:020000040040ba
:1040ec0013b50446019201aafcf7b4fd636813f002
:0c40fc00100f18bf4ff0ff3002b010bdd5
:020000040000fa
:020000040040ba
:1041080068076c094c836a9074a07ac0008068883c
:0c41180000846c820081286e696c290014
:020000040000fa
:020000040040ba
:10412400044b20221a6303f500734ff480721a6360
:08413400704700bf000e0e40b1
:020000040000fa
:020000040040ba
:10413c0000b583b08df8070001210df10700fef7e3
:08414c009bfe03b05df804fbcb
:020000040000fa
:020000040040ba
:1041540003680bb10020704710b504460120fff737
:0841640009ff2060012010bddd
:020000040000fa
:020000040040ba
:10416c0008b500231a4619460068fdf7fdfb012827
:08417c0014bf0020012008bd62
:020000040000fa
:020000040040ba
:10418400034b1b680360034b1b684360704700bf0d
:08419400e4a54020f0a5402045
:020000040000fa
:020000040040ba
:10419c0008b50020fff7fef90248fff7f9fefff71c
:0841ac00b5fcfce748444000ab
:020000040000fa
:020000040040ba
:1041b4004ff0200372b683f31188bff36f8fbff300
:0641c4004f8f62b6fee71a
:020000040000fa
:020000040040ba
:1041ca004ff0200372b683f31188bff36f8fbff3ea
:0641da004f8f62b6fee704
:020000040000fa
:020000040040ba
:1041e00000f1080343604ff0ff328260c360036157
:0641f0000023036070478c
:020000040000fa
:020000040040ba
:1041f60043684b609a688a605160996008610368f9
:0642060001330360704764
:020000040000fa
:020000040040ba
:10420c0010b50446fff7a0fea46b00f023f8b4fa37
:06421c0084f0400910bd12
:020000040000fa
:020000040040ba
:1042220010b5431e0a44914200d110bd11f8014b52
:0642320003f8014ff7e75d
:020000040000fa
:020000040040ba
:104238005472616e73706172656e74554152544464
:04424800656d6f0031
:020000040000fa
:020000040040ba
:10424c00dff80c00016841f4700101607047000058
:04425c0088ed00e009
:020000040000fa
:020000040040ba
:10426000034a1368013b13600bb983f3118870474d
:04427000b0a5402095
:020000040000fa
:020000040040ba
:10427400034b1b7813b9024b01221a70704700bf1d
:0442840004a640202c
:020000040000fa
:020000040040ba
:1042880008b500f0e5f8024b1860586008bd00bf9b
:0442980088a5402095
:020000040000fa
:020000040040ba
:10429c00eff3108072b6bff35f8fb0fa80f0400975
:0242ac00704759
:020000040000fa
:020000040040ba
:1042ae0018b1bff35f8f62b6704772b6bff35f8f00
:0242be00704747
:020000040000fa
:020000040040ba
:1042c000034611f8012b184603f8012b002af8d1f8
:0242d000704735
:020000040000fa
:020000040040ba
:0242d200fee705
:020000040000fa
:020000040040ba
:1042d400024a13780233dbb21370704719a64020e8
:020000040000fa
:020000040040ba
:1042e400014b024a1a607047000c0e40000600049d
:020000040000fa
:020000040040ba
:1042f400024a136801331360704700bfd0a5402001
:020000040000fa
:020000040040ba
:1043040002440346934200d1704703f8011bf9e7c6
:020000040000fa
:020000040040ba
:1043140003461a46013311780029fad1101a70475e
:020000040000fa
:020000040040ba
:10432400494e4600696e66004e414e006e616e0055
:10433400494e4600696e66004e414e006e616e0045
:020000040000fa
:020000040040ba
:1043440008b5fff79ffffef748fffef746ff08bddd
:020000040000fa
:020000040040ba
:0e435400a0f14103192b98bf40f020007047e4
:020000040000fa
:020000040040ba
:0e436200a0f16103192b98bf00f05f007047b7
:020000040000fa
:020000040040ba
:0c43700008b501460220fff765fe08bdfd
:020000040000fa
:020000040040ba
:0c437c00014b05221a60704700c0004091
:020000040000fa
:020000040040ba
:0c438800014b02221a60704700c0004088
:020000040000fa
:020000040040ba
:0c439400014bd861704700bf00c0004022
:020000040000fa
:020000040040ba
:0c43a000014b5861704700bf00c0004096
:020000040000fa
:020000040040ba
:0c43ac00014b186980b2704700c000404f
:020000040000fa
:020000040040ba
:0c43b800014b18605960704780a5402040
:020000040000fa
:020000040040ba
:0c43c400014bd8601961704788a44020ac
:020000040000fa
:020000040040ba
:0c43d000014b58629962704788a440209d
:020000040000fa
:020000040040ba
:0c43dc00014b187d704700bf88a44020f2
:020000040000fa
:020000040040ba
:0c43e8004150505f5461736b730000bfc4
:020000040000fa
:020000040040ba
:0c43f400014b01221a607047f4a5402024
:020000040000fa
:020000040040ba
:0c440000014b00221a70704704a64020f7
:020000040000fa
:020000040040ba
:0c440c0010b50446fff756ff204610bd17
:020000040000fa
:020000040040ba
:084418000048704780d1f00854
:020000040000fa
:020000040040ba
:0844200008b5fff73bff08bde2
:020000040000fa
:020000040040ba
:0844280008b5fff740ff08bdd5
:020000040000fa
:020000040040ba
:08443000984040001700000055
:020000040000fa
:020000040040ba
:0844380008b5fff71bfffce7cc
:020000040000fa
:020000040040ba
:1044400049444c45000000bf6675636b000000bf27
:020000040000fa
:020000040040ba
:0844500008b5fff70ffb08bde2
:020000040000fa
:020000040040ba
:0844580000487047b8a44020a1
:020000040000fa
:020000040040ba
:07446000286e756c6c290049
:020000040000fa
:020000040040ba
:0644680000230361704710
:020000040000fa
:020000040040ba
:06446e000068fff72cba04
:020000040000fa
:02000004d0002a
:0400000002000000fa
:00000001FF
